:100000000C943E001895000018950000189500000B
:10001000189500001895000018950000189500002C
:10002000189500001895000018950000189500001C
:10003000189500000C94E500189500001895000034
:100040000C94EA001895000018950000189500001F
:100050000C94B70018950000189500001895000042
:1000600018950000189500001895000018950000DC
:100070000C94D900189500000C94E3008FEF8DBF0D
:10008000C8EDE0EC4E2E80E18EBFD0E1F0E15F2EB6
:10009000A89584B7082E877F84BF88E1992780932D
:1000A000600090936000EEEFFFE0A0E0B1E08827F1
:1000B0008D933197E9F781E08093C40080E08093CD
:1000C000C50088E18093C1006624559A80E0809342
:1000D000050189E38093060184E18093070180E0B4
:1000E0008093040180E08093080182E08093000106
:1000F00080E08093020100E80093610002E0009339
:10010000610072D080E0809380008CE08093810059
:1001100080918100887F8093810080E090E09093BF
:100120008500809384008FE398E390938900809307
:10013000880085E085BD239A82E084BD882785BD3F
:1001400070E076BD71E077BD70916F007260709362
:100150006F0070916E00726070936E00E2D08CE060
:100160008093810085E085BD78940C94B5002F9331
:100170003F932FB72F933091C600303209F014C04F
:100180002091040120FF80918100887F809381006D
:1001900020FD8CE08093810020FF81E080930401AA
:1001A00020FD80E0809304012F912FBF3F912F917C
:1001B00018952F933F932FB72F938ED02F912FBF4A
:1001C0003F912F9118955C981895FCD095D085E0BB
:1001D00085BD18952F933F932FB72F932CD02F9138
:1001E0002FBF3F912F91189500E00093C500009319
:1001F000CD0001E00093C40001E00093CC0008E1D1
:100200000093C1000093C90006E00093C200009370
:10021000CA005C98549A7091C10070687093C100D4
:100220007091C90070687093C9007091C9007064C2
:100230007093C9000895F89480E080930801A2E0CB
:10024000B1E0EC91FF27A1E0B1E091E00E94F4025F
:10025000209101012030B9F157D049D02A3010F057
:10026000295C01C0205D2093C60041D02AE3209381
:10027000C600A2E0B1E08C91805F8C93A2E0B1E077
:10028000EC91FF27A3E0B1E091E00E94F402A2E02C
:10029000B1E08C9180518C9370E076BD00910301A8
:1002A00041E0049F07BC2091010120685C9A2093E3
:1002B000CE0022EA17D02093CE00209102012031F7
:1002C00011F0239505C020E0882785BD0E945402C7
:1002D00020930201789408953091CE0037FF309337
:1002E000C60008950090C80005FEFCCF0895009058
:1002F000C00005FEFCCF08955D9B02C05D9902C061
:100300005D9A01C05D9808953AE0F1DF3093C60030
:100310003DE0EDDF3093C60030E3E9DF3093C60007
:1003200008950E940B030E94100312EA0E94280302
:1003300010E00E94280310E00E9428030E941F037F
:100340000E94100312EA0E9428031DE00E94280365
:1003500013E80E9428030E941F0321E020FF089554
:10036000A5E0B1E08C910E946902A5E0B1E08C9318
:10037000A6E0B1E08C910E946902A6E0B1E08C9306
:10038000A7E0B1E08C910E946902A7E0B1E08C93F4
:100390000E94100312EA0E94280312E00E94280320
:1003A000A5E0B1E01C910E942803A6E0B1E01C91F9
:1003B0000E942803A7E0B1E01C910E9428030E943C
:1003C0001F0308950E94100312EA0E94280312E0FE
:1003D0000E9428030E94100313EA0E9428030E942F
:1003E0004703A5E0B1E01C930E944703A6E0B1E0FB
:1003F0001C930E944503A7E0B1E01C930E941F03D9
:10040000A7E0B1E09C910E947002A7E0B1E08C935C
:10041000A6E0B1E09C910E947002A6E0B1E08C934E
:10042000A5E0B1E09C910E947002A5E0B1E08C9340
:100430000E94540203E00E944F02A8EAB0E1E7E004
:10044000F1E00E94A1020E944002E4ECF6E00E946A
:100450004802A8EAB0E1E6E0F1E00E94A1020E94B1
:100460004002E4ECF6E00E944802A8EAB0E1E5E0D0
:10047000F1E00E94A1020E9440020E9454020895ED
:10048000A8EAB0E18D91882311F011D0FBCF089537
:100490000E948002802D11F00AD0FACF089580E2E8
:1004A00006D00A95E9F708958DE001D08AE0009022
:1004B000C00005FEFCCF8093C6000895982F82955A
:1004C0008F70805D8D939F70905D9D9388278C9336
:1004D00008954AE0082F0E94FB020295802B0895A0
:1004E000892F8F70905110F0865FFCCF089531975F
:1004F000F1F70895689462F80895E89462F8089511
:10050000C895319600200895000F111F221F331F38
:10051000089500951095209530950F5F1F4F2F4F30
:100520003F4F0895019110810EC0019111912191C9
:1005300030810BC00191108117FF05C03FEF2FEFF5
:1005400004C0008111272227332737FF03C0E1DFD2
:100550008DE28D93CF93DF93CF92DF92EF92AA2417
:10056000BB24CC24DD24EE2440E2CAE0DD2755E0A4
:1005700093E38881890F87FD9F7083FD907F891B9E
:1005800089935A95A9F7C0DFAA1CBB1CCC1CDD1CA3
:10059000EE1C4A9551F7E894EFE0FF2782910ED0C8
:1005A000EB30E0F71EF068948A2D0CD088278D93ED
:1005B000EF90DF90CF90DF91CF910895982F8295A3
:1005C00001D0892F8F70805D26F0803309F4089563
:1005D00068948D930895F999FECFE1BDF2BD3196EF
:1005E000089591E001C092E0F6DFF89A80B58D930E
:1005F0009A95D1F70895FF93881BF9E0001FFA95AB
:1006000011F4FF910895881F841B18F4840F8894B7
:10061000F5CF0894F3CF41984098399838980895C9
:10062000389A399803D0389801D0399AEF93FF93CC
:10063000E1E0F0E00E947702FF91EF910895389A8F
:10064000399AF4DF3898309BFECFF0DF3998EECF3F
:100650000894111F01C0110F69F0389A18F40000B6
:10066000399802C0399A00C0E1DF3898309BFECF3C
:10067000DDDFF1CF389A3998D9DF3898309BFECF3B
:10068000E8943199689462F8D1CF089401C08894B5
:10069000331F11E0389A3998C9DF3898309BFECF64
:1006A000C5DF889431990894111FA0F7389A3795BF
:1006B00010F4399801C0399AB9DF3898309BFECFD1
:0606C000B5DF08953A00C9
:00000001FF
