:100000000C943E001895000018950000189500000B
:10001000189500001895000018950000189500002C
:10002000189500001895000018950000189500001C
:10003000189500000C94B600189500001895000063
:100040000C94BA001895000018950000189500004F
:1000500018950000189500001895000018950000EC
:1000600018950000189500001895000018950000DC
:100070000C94AA00189500000C94B4008FEF8DBF6B
:10008000C8EDE0EC4E2E80E18EBFD0E1F0E15F2EB6
:10009000A89584B7082E877F84BF88E1992780932D
:1000A000600090936000EEEFFFE0A0E0B1E08827F1
:1000B0008D933197E9F787E08093C40080E08093C7
:1000C000C50088E18093C1006624559A80E0809342
:1000D000040182E08093000180E08093020100E847
:1000E0000093610000E0009361004ED080E08093B7
:1000F00080008CE08093810080918100887F8093D4
:10010000810080E090E090938500809384008FEFE1
:1001100090EE909389008093880085E085BD239AB6
:1001200082E084BD882785BD70E076BD71E077BD33
:1001300070916F00726070936F0070916E007260CA
:1001400070936E008CE08093810085E085BD78948B
:100150000C94A8002F933F932FB72F9391D02F91FA
:100160002FBF3F912F9118955C981895AED085E0E0
:1001700085BD18952F933F932FB72F9327D02F919D
:100180002FBF3F912F91189500E00093C500009379
:10019000CD0007E00093C40007E00093CC0008E125
:1001A0000093C1000093C90006E00093C2000093D1
:1001B000CA005C98549A7091C90070687093C90025
:1001C0007091C90070647093C9000895F89480E03C
:1001D000809304012AE074D02093C6002DE070D0F3
:1001E0002093C60020E36CD02093C600A2E0B1E0CB
:1001F000EC91FF27A1E0B1E091E00E9489012091FC
:1002000001015ED02A3010F0295C01C0205D2093EE
:10021000C60056D02AE32093C600A2E0B1E08C913C
:10022000805F8C93A2E0B1E0EC91FF27A3E0B1E006
:1002300091E00E948901A2E0B1E08C9180518C9301
:1002400070E076BD0091030141E0049F07BC20915E
:10025000010120685C9A2093CE0022EA2CD02093E2
:10026000CE0020910201203111F0239505C020E03D
:10027000882785BD0E946D0120930201789408951E
:100280003091CE0020910401213039F0323C09F048
:10029000089521E0209304010895232F2058009011
:1002A0005F0002FE04C00CD03093C600089520E029
:1002B0002093040108950090C80005FEFCCF089526
:1002C0000090C00005FEFCCF08955D9B02C05D99C3
:1002D00002C05D9A01C05D9808958DE001D08AE06A
:1002E0000090C00005FEFCCF8093C60008953197B2
:1002F000F1F70895689462F80895E89462F8089513
:10030000F999FECFE1BDF2BD3196089591E001C0AB
:1003100092E0F6DFF89A80B58D939A95D1F708951B
:00000001FF
