:100000000C943E001895000018950000189500000B
:10001000189500001895000018950000189500002C
:10002000189500001895000018950000189500001C
:10003000189500000C941501189500001895000003
:100040000C941A01189500001895000018950000EE
:100050000C94E70018950000189500001895000012
:1000600018950000189500001895000018950000DC
:100070000C940901189500000C9413018FEF8DBFAB
:10008000C8EDE0EC4E2E80E18EBFD0E1F0E15F2EB6
:10009000A89584B7082E877F84BF88E1992780932D
:1000A000600090936000EEEFFFE0A0E0B1E08827F1
:1000B0008D933197E9F781E08093C40080E08093CD
:1000C000C50088E18093C1006624559A80E0809342
:1000D000250189E38093260184E18093270180E054
:1000E0008093040180E08093280182E080930001E6
:1000F00080E08093020100E80093610002E0009339
:100100006100A2D080E0809380008CE08093810029
:1001100080918100887F8093810080E090E09093BF
:100120008500809384008FE398E390938900809307
:10013000880085E085BD239A82E084BD882785BD3F
:1001400070E076BD71E077BD70916F007260709362
:100150006F0070916E00726070936E0008D18CE039
:100160008093810085E085BD81E08093030100914B
:100170000301003118F011F00C94E400A3E0B1E0A9
:10018000EC91FF27A3E0B1E0AD90BB24A4E0B1E087
:10019000AA0DBB1D91E00E949D02A3E0B1E0EC918D
:1001A000FF27A3E0B1E0AD90BB24A4E1B1E0AA0D2C
:1001B000BB1D91E00E949D02A3E0B1E08C918F5F96
:1001C0008C9310F40C94B70078940C94E5002F9362
:1001D0003F932FB72F933091C600303209F014C0EF
:1001E0002091040120FF80918100887F809381000D
:1001F00020FD8CE08093810020FF81E0809304014A
:1002000020FD80E0809304012F912FBF3F912F911B
:1002100018952F933F932FB72F9384D02F912FBFF3
:100220003F912F9118955C981895F2D08BD085E06E
:1002300085BD18952F933F932FB72F932CD02F91D7
:100240002FBF3F912F91189500E00093C5000093B8
:10025000CD0001E00093C40001E00093CC0008E170
:100260000093C1000093C90006E00093C200009310
:10027000CA005C98549A7091C10070687093C10074
:100280007091C90070687093C9007091C900706462
:100290007093C9000895F89480E080932801A2E04B
:1002A000B1E0AD90BB24A5E0B1E0AA0DBB1D8C91DF
:1002B0008093010120910101203059F14BD03DD0B4
:1002C0002A3010F0295C01C0205D2093C60035D093
:1002D0002AE32093C60070E076BDA2E0B1E0AD90C5
:1002E000BB24A4E1B1E0AA0DBB1D0C9141E0049F29
:1002F00007BC20910101206C5C9A2093CE0022EA79
:1003000017D02093CE0020910201203111F02395C7
:1003100005C020E0882785BD0E946F02209302015E
:10032000789408953091CE0037FF3093C600089539
:100330000090C80005FEFCCF08950090C00005FEA7
:10034000FCCF08955D9B02C05D9902C05D9A01C01B
:100350005D9808953AE0F1DF3093C6003DE0EDDFAF
:100360003093C60030E3E9DF3093C60008950E9461
:10037000B4020E94B90212EA0E94D10210E00E9467
:10038000D10210E00E94D1020E94C8020E94B9026C
:1003900012EA0E94D1021DE00E94D10213E80E94DD
:1003A000D1020E94C80221E020FF0895A5E2B1E039
:1003B0008C910E948402A5E2B1E08C93A6E2B1E0A8
:1003C0008C910E948402A6E2B1E08C93A7E2B1E096
:1003D0008C910E948402A7E2B1E08C930E94B90242
:1003E00012EA0E94D10212E00E94D102A5E2B1E01D
:1003F0001C910E94D102A6E2B1E01C910E94D102A0
:10040000A7E2B1E01C910E94D1020E94C8020895A7
:100410000E94B90212EA0E94D10212E00E94D102A7
:100420000E94B90213EA0E94D1020E94F002A5E2E2
:10043000B1E01C930E94F002A6E2B1E01C930E947E
:10044000EE02A7E2B1E01C930E94C8020E946F0274
:1004500003E00E946A022091270130912701207356
:100460002795279527952795205D3F70305D65DF9F
:100470002093C60062DF3093C6002AE35EDF20933C
:10048000C6002091260130912601207727952795D7
:1004900027952795245E3F70305D4FDF2093C6007F
:1004A0004CDF3093C6002AE348DF2093C60020913A
:1004B00025013091250120772795279527952795A8
:1004C000205E3F70305D39DF2093C60036DF309309
:1004D000C600089580E206D00A95E9F708958DE0F8
:1004E00001D08AE00090C00005FEFCCF8093C600DA
:1004F0000895982F82958F70805D8D939F70905D89
:100500009D9388278C9308954AE0082F0E94A402A7
:100510000295802B08953197F1F70895689462F859
:100520000895E89462F80895F999FECFE1BDF2BD0F
:100530003196089591E001C092E0F6DFF89A80B517
:100540008D939A95D1F70895FF93881BF9E0001FCA
:10055000FA9511F4FF910895881F841B18F4840FF5
:100560008894F5CF0894F3CF4198409839983898FB
:100570000895389A399803D0389801D0399AEF9372
:10058000FF93E1E0F0E00E948B02FF91EF9108956C
:10059000389A399AF4DF3898309BFECFF0DF3998DB
:1005A000EECF0894111F01C0110F69F0389A18F4AA
:1005B0000000399802C0399A00C0E1DF3898309BBA
:1005C000FECFDDDFF1CF389A3998D9DF3898309BEC
:1005D000FECFE8943199689462F8D1CF089401C0B5
:1005E0008894331F11E0389A3998C9DF3898309BC6
:1005F000FECFC5DF889431990894111FA0F7389A6F
:10060000379510F4399801C0399AB9DF3898309B82
:06061000FECFB5DF0895E6
:00000001FF
