:100000000C943E001895000018950000189500000B
:10001000189500001895000018950000189500002C
:10002000189500001895000018950000189500001C
:10003000189500000C94DB0018950000189500003E
:100040000C94DF001895000018950000189500002A
:100050000C94AD001895000018950000189500004C
:1000600018950000189500001895000018950000DC
:100070000C94CF00189500000C94D9008FEF8DBF21
:10008000C8EDE0EC4E2E80E18EBFD0E1F0E15F2EB6
:10009000A89584B7082E877F84BF88E1992780932D
:1000A000600090936000EEEFFFE0A0E0B1E08827F1
:1000B0008D933197E9F781E08093C40080E08093CD
:1000C000C50088E18093C1006624559A80E0809342
:1000D000040180E08093050182E08093000180E0CC
:1000E0008093020100E80093610002E00093610048
:1000F00070D080E0809380008CE0809381008091BC
:100100008100887F8093810080E090E0909385005B
:10011000809384008FE398E3909389008093880014
:1001200085E085BD239A82E084BD882785BD70E087
:1001300076BD71E077BD70916F00726070936F0053
:1001400070916E00726070936E008CE080938100FD
:1001500085E085BD78940C94AB002F933F932FB727
:100160002F933091C600303209F014C02091040161
:1001700020FF80918100887F8093810020FD8CE0AA
:100180008093810020FF81E08093040120FD80E0C6
:10019000809304012F912FBF3F912F9118952F939A
:1001A0003F932FB72F938DD02F912FBF3F912F913A
:1001B00018955C98189595D085E085BD18952F9376
:1001C0003F932FB72F932CD02F912FBF3F912F917B
:1001D000189500E00093C5000093CD0001E0009366
:1001E000C40001E00093CC0008E10093C10000933B
:1001F000C90006E00093C2000093CA005C98549ABC
:100200007091C10070687093C1007091C9007068EE
:100210007093C9007091C90070647093C90008950B
:10022000F89480E080930501A2E0B1E0EC91FF2713
:10023000A1E0B1E091E00E94A201209101012030F3
:10024000B9F157D049D02A3010F0295C01C0205DA7
:100250002093C60041D02AE32093C600A2E0B1E07B
:100260008C91805F8C93A2E0B1E0EC91FF27A3E03A
:10027000B1E091E00E94A201A2E0B1E08C91805136
:100280008C9370E076BD0091030141E0049F07BCB0
:100290002091010120685C9A2093CE0022EA17D0B9
:1002A0002093CE0020910201203111F0239505C04A
:1002B00020E0882785BD0E94860120930201789462
:1002C00008953091CE0037FF3093C6000895009016
:1002D000C80005FEFCCF08950090C00005FEFCCFCD
:1002E00008955D9B02C05D9902C05D9A01C05D9852
:1002F00008953AE0F1DF3093C6003DE0EDDF309342
:10030000C60030E3E9DF3093C60008958DE001D0E8
:100310008AE00090C00005FEFCCF8093C6000895DF
:100320003197F1F70895689462F80895E89462F8B7
:100330000895F999FECFE1BDF2BD3196089591E09F
:1003400001C092E0F6DFF89A80B58D939A95D1F7C7
:0203500008950E
:00000001FF
