:100000000C943E001895000018950000189500000B
:10001000189500001895000018950000189500002C
:10002000189500001895000018950000189500001C
:10003000189500001895000018950000189500000C
:1000400018950000189500001895000018950000FC
:1000500018950000189500001895000018950000EC
:1000600018950000189500001895000018950000DC
:100070000C946900189500000C947B008FEF8DBFE5
:10008000C8EDE0EC4E2E80E18EBFD0E1F0E15F2EB6
:10009000A89584B7082E877F84BF88E1992780932D
:1000A000600090936000EEEFFFE0A0E0B1E08827F1
:1000B0008D933197E9F7662420D0789423E000905F
:1000C000C00005FEFCCF84EF91E00E94AD000C94CF
:1000D0005E002F932FB72F933F9305D03F912F9121
:1000E0002FBF2F91189532E30090C00005FEFCCF82
:1000F0003093C60008955D98189500E00093C50000
:100100000093CD0007E00093C40007E00093CC000B
:1001100008E10093C1000093C90006E00093C2000B
:100120000093CA005D98559A7091C10070687093F1
:10013000C1007091C90070687093C9007091C900C6
:1001400070647093C90008953197F1F70895689429
:1001500062F80895E89462F80895EF93FF93EE270C
:10016000E82BE92B31F0E6E6FEE03197F1F7019755
:08017000D1F7FF91EF91089512
:00000001FF
