:100000000C942A001895000018950000189500001F
:10001000189500001895000018950000189500002C
:10002000189500001895000018950000189500001C
:10003000189500000C945400189500000C948D0045
:1000400018950000189500001895000018950000FC
:10005000189500008FE58DBFC8E3E0E24E2E88E0E2
:100060008EBFD8E0F8E05F2EA89584B7082E877F72
:1000700084BF88E1992781BD91BDEEEFF7E0A0E64E
:10008000B0E088278D933197E9F7662480E080936C
:1000900063008B9A44D0789426E42CB984EF91E0E5
:1000A0000E94AB000C944C002F932FB72F933F93DB
:1000B000CF93DF931F920F92F8940AD078940F9009
:1000C0001F90DF91CF913F912F912FBF2F911895C6
:1000D0003CB120916300213049F0343800905F003A
:1000E00001FE089521E0209363000895323A0090C4
:1000F0005F0001FE089520E020936300929A22ECB5
:100100002CB920E35D9BFECF2CB923952A33D1F780
:100110005D9BFECF24E82CB908959298189507E0CE
:1001200009B908E10AB906E800BD92988A9A579A77
:10013000569A0895939B02C0939902C0939A01C066
:10014000939808953197F1F70895689462F80895A7
:10015000E89462F80895EF93FF93EE27E82BE92BDC
:1001600031F0E6E6FEE03197F1F70197D1F7FF9124
:04017000EF9108956E
:00000001FF
