:100000000C942A001895000018950000189500001F
:100010001895000018950000189500000C947700C2
:10002000189500001895000018950000189500001C
:10003000189500000C946200189500000C9475004F
:1000400018950000189500001895000018950000FC
:10005000189500008FE58DBFC8E3E0E24E2E88E0E2
:100060008EBFD8E0F8E05F2EA89584B7082E877F72
:1000700084BF88E1992781BD91BDEEEFF7E0A0E64E
:10008000B0E088278D933197E9F7662480E08FBD33
:100090008BE08EBD8EB5887F8EBD80E090E09DBDEB
:1000A0008CBD8FE890ED9BBD8ABD80E0809395006C
:1000B0008B9A79B7706179BF8BE08EBD33D078941D
:1000C0000C9460002F932FB72F933F93CF93DF9320
:1000D0001F920F9209D00F901F90DF91CF913F9107
:1000E0002F912FBF2F9118950895929818952F93BF
:1000F0002FB72F933F93CF93DF931F920F9233E04D
:10010000929A939B02C0939902C0939A01C09398CC
:100110003CB90F901F90DF91CF913F912F912FBF4E
:100120002F91189500E009B908E009B908E10AB96A
:1001300006E000BD92988A9A579A569A0895319788
:10014000F1F70895689462F80895E89462F80895C4
:00000001FF
