:100000000C943E001895000018950000189500000B
:10001000189500001895000018950000189500002C
:10002000189500001895000018950000189500001C
:10003000189500001895000018950000189500000C
:1000400018950000189500001895000018950000FC
:1000500018950000189500001895000018950000EC
:1000600018950000189500001895000018950000DC
:100070001895000018950000189500008FEF8DBFAF
:10008000C8EDE0EC4E2E80E18EBFD0E1F0E15F2EB6
:10009000A89584B7082E877F84BF88E1992780932D
:1000A000600090936000EEEFFFE0A0E0B1E08827F1
:1000B0008D933197E9F7662471E078B911E008B1C2
:1000C00010FF069510FD000F08B9017800905F0041
:1000D00001FE102F88EC90E00E9479000C945F00E4
:1000E0003197F1F70895689462F80895E89462F8FA
:1000F0000895EF93FF93EE27E82BE92B31F0E6E626
:10010000FEE03197F1F70197D1F7FF91EF91089554
:00000001FF
