:100000000C942A001895000018950000189500001F
:10001000189500001895000018950000189500002C
:10002000189500001895000018950000189500001C
:10003000189500001895000018950000189500000C
:1000400018950000189500001895000018950000FC
:10005000189500008FE58DBFC8E3E0E24E2E88E0E2
:100060008EBFD8E0F8E05F2EA89584B7082E877F72
:1000700084BF88E1992781BD91BDEEEFF7E0A0E64E
:10008000B0E088278D933197E9F783E089B980E064
:1000900080BD88E18AB9662480E380936100A8E08E
:1000A000B8E0E0E6F0E00E9443010E94E9000E940F
:1000B000FD000E94FD00A8E0B8E0E0E6F0E00E944C
:1000C0008D010E94E900E2E5F3E00E94F1000E9448
:1000D000FD000E94FD00A8E0B8E0E0E6F0E00E942C
:1000E00043010E94E900E4E5F3E00E94F100A0E68C
:1000F000B0E08C918F5F8C93A8E0B8E0E0E6F0E090
:100100000E9443010E94E900E4E5F3E00E94F1004F
:10011000A0E6B0E08C918F5F8C93A8E0B8E0E0E6B9
:10012000F0E00E9443010E94E9008DE00E9400017E
:100130008AE00E9400010E94FD0031E0A1E6B0E0EB
:100140000E94F800A1E6B0E08C918F5F8C9331E0C3
:10015000A1E6B0E00E94F800A1E6B0E08C918F5FCC
:100160008C9389E3482F00916100041718F011F077
:100170000C94BC000C94C00080E3A1E6B0E08C932A
:1001800031E0A1E6B0E00E94F8008DE00E9400019D
:100190008AE00E9400010E94FD00EF93FF93E6E9D0
:1001A000F3E00E940A01FF91EF9131E63CB932E69B
:1001B0003CB933E60AD03DE008D03AE006D0E1E0B1
:1001C000F0E00E9404010C944F005D9BFECF3CB90F
:1001D0000895A8E0B8E08D91882311F011D0FBCFED
:1001E00008950E942201802D11F00AD0FACF0895BF
:1001F0008D9106D03A95E1F708958DE001D08AE01F
:100200005D9BFECF8CB9089588EE93E00CD03197BA
:10021000D9F708953197F1F70895689462F8089531
:10022000E89462F80895EF93FF93EE27E82BE92B0B
:1002300031F0E3E3F7E03197F1F70197D1F7FF9160
:10024000EF910895C895319600200895000F111F71
:10025000221F331F089500951095209530950F5F4C
:100260001F4F2F4F3F4F0895019110810EC00191F4
:100270001191219130810BC00191108117FF05C0B0
:100280003FEF2FEF04C0008111272227332737FFCC
:1002900003C0E1DF8DE28D93CF93DF93CF92DF92A6
:1002A000EF92AA24BB24CC24DD24EE2440E2CAE051
:1002B000DD2755E093E38881890F87FD9F7083FDDB
:1002C000907F891B89935A95A9F7C0DFAA1CBB1C94
:1002D000CC1CDD1CEE1C4A9551F7E894EFE0FF279B
:1002E00082910ED0EB30E0F71EF068948A2D0CD08E
:1002F00088278D93EF90DF90CF90DF91CF91089575
:10030000982F829501D0892F8F70805D26F08033E1
:1003100009F4089568948D93089541E003C042E084
:1003200001C044E0E40F8827F81F8291982F82953E
:1003300006D0892F04D04A95C1F70C94A6018F707E
:100340008A3008F0895F805D8D93089588278D93AA
:0603500008956800200082
:00000001FF
