:100000000C942A001895000018950000189500001F
:100010001895000018950000189500000C946B00CE
:10002000189500001895000018950000189500001C
:10003000189500001895000018950000189500000C
:1000400018950000189500001895000018950000FC
:10005000189500008FE58DBFC8E3E0E24E2E88E0E2
:100060008EBFD8E0F8E05F2EA89584B7082E877F72
:1000700084BF88E1992781BD91BDEEEFF7E0A0E64E
:10008000B0E088278D933197E9F780E089B980E067
:1000900080BD88E18AB9662480E08FBD8DE08EBD89
:1000A0008EB5887F8EBD80E090E09DBD8CBD81E6E1
:1000B00090E09BBD8ABD79B7706179BF8DE08EBD40
:1000C00078945F9918D020916100309160002313DB
:1000D00032D00C9461002F932FB72F93CF93DF93DF
:1000E000C2B320E8C227C2BB0ED0DF91CF912F91BF
:1000F0002FBF2F9118953CB13D3000905F0001FC5F
:1001000030936200089530E320916000C3E6D0E0B0
:10011000C20F20E0D21F38832091600023952F73F7
:1001200020936000309161002313089533953F734D
:100130003093610008955D9B0895309162003323F0
:1001400000905F0001FC0895C3E6D0E0C20F20E0FC
:10015000D21F28812CB93091610033953F733093C1
:100160006100209160002313089520E02093620035
:1001700008953197F1F70895689462F80895E89426
:0401800062F8089584
:00000001FF
