:100000000C943E001895000018950000189500000B
:10001000189500001895000018950000189500002C
:10002000189500001895000018950000189500001C
:10003000189500000C949700189500001895000082
:1000400018950000189500001895000018950000FC
:1000500018950000189500001895000018950000EC
:1000600018950000189500001895000018950000DC
:100070001895000018950000189500008FEF8DBFAF
:10008000C8EDE0EC4E2E80E18EBFD0E1F0E15F2EB6
:10009000A89584B7082E877F84BF88E1992780932D
:1000A000600090936000EEEFFFE0A0E0B1E08827F1
:1000B0008D933197E9F780E08093C40080E08093CE
:1000C000C50088E18093C100662480E080938000B1
:1000D0008DE08093810080918100887F80938100F2
:1000E00080E090E0909385008093840083EB90E023
:1000F000909389008093880000E80093610003E0FA
:100100000093610070916F00726070936F008DE0DA
:100110008093810078940090C00007FC18D0209153
:10012000010130910001231333D00C948B002F93E5
:100130002FB72F93CF93DF93CBB120E8C227CBB952
:100140000FD0DF91CF912F912FBF2F911895309124
:10015000C6003D3000905F0001FC3093020108951D
:1001600030E320910001C3E0D1E0C20F20E0D21FB4
:1001700038832091000123952F7320930001309143
:1001800001012313089533953F73309301010895BE
:100190000090C00005FE08953091020133230090C5
:1001A0005F0001FC0895C3E0D1E0C20F20E0D21F40
:1001B00028812093C6003091010133953F7330931D
:1001C0000101209100012313089520E020930201F2
:1001D00008953197F1F70895689462F80895E894C6
:0401E00062F8089524
:00000001FF
