:100000000C943E001895000018950000189500000B
:10001000189500001895000018950000189500002C
:10002000189500001895000018950000189500001C
:10003000189500001895000018950000189500000C
:1000400018950000189500001895000018950000FC
:1000500018950000189500001895000018950000EC
:1000600018950000189500001895000018950000DC
:100070001895000018950000189500008FEF8DBFAF
:10008000C8EDE0EC4E2E80E18EBFD0E1F0E15F2EB6
:10009000A89584B7082E877F84BF88E1992780932D
:1000A000600090936000EEEFFFE0A0E0B1E08827F1
:1000B0008D933197E9F783E08093C40080E08093CB
:1000C000C50088E18093C100662400E800936100C8
:1000D00001E000936100A1E0B1E088278C930090DB
:1000E000C00007FC02D00C946F003091C6003D3078
:1000F000A1F020910001203100905F0002FE0895E0
:100100002395209300012A95C1E0D1E0C20F20E0A1
:10011000D21F399330E038830895A1E0B1E00E9406
:1001200099000E949F0080E0809300010895A8EA52
:10013000B0E18D91882311F005D0FBCF08958DE0BB
:1001400001D08AE00090C00005FEFCCF8093C6007D
:1001500008953197F1F70895689462F80895E89446
:0401600062F80895A4
:00000001FF
