:100000000C943E001895000018950000189500000B
:10001000189500001895000018950000189500002C
:10002000189500001895000018950000189500001C
:10003000189500001895000018950000189500000C
:1000400018950000189500001895000018950000FC
:100050000C94840018950000189500001895000075
:1000600018950000189500001895000018950000DC
:100070000C949600189500000C94DE008FEF8DBF55
:10008000C8EDE0EC4E2E80E18EBFD0E1F0E15F2EB6
:10009000A89584B7082E877F84BF88E1992780932D
:1000A000600090936000EEEFFFE0A0E0B1E08827F1
:1000B0008D933197E9F787E08093C40080E08093C7
:1000C000C50088E18093C100662400E800936100C8
:1000D00000E00093610074D07894E0E1F0E0A0E0EB
:1000E000B1E091E00E949D01E8E4F3E00E940F017D
:1000F000A8EAB0E1E0E0F1E00E944A010E940701B5
:100100000E9416010C9482002F932FB72F933F93D8
:10011000CF93DF931F920F9214D00F901F90DF9117
:10012000CF913F912F912FBF2F9118952F932FB7DC
:100130002F932091CE002093C6002F912FBF2F9197
:1001400018953091C6003D3099F020913401283146
:1001500000905F0002FE08952395209334012A95B4
:10016000C2E0D1E0C20F20E0D21F39932883089566
:1001700020E020933401C2E0D1E0399130532AE0ED
:10018000329F39913053300D303100905F0002FEC4
:10019000089530930101306A3093CE000090C8007A
:1001A00005FEFCCF3991332321F05D9A3093CE00C8
:1001B000F5CF5D9A3DE03093CE0008955D98189597
:1001C00000E00093C5000093CD0007E00093C40059
:1001D00007E00093CC0008E10093C1000093C90040
:1001E00006E00093C2000093CA005D98559A709192
:1001F000C10070687093C1007091C90070687093FD
:10020000C9007091C90070647093C9000895A8EA8C
:10021000B0E18D91882311F00CD0FBCF08950E949E
:100220002901802D11F005D0FACF08958DE001D07D
:100230008AE00090C00005FEFCCF8093C6000895C0
:100240003197F1F70895689462F80895E89462F898
:100250000895C895319600200895000F111F221FA0
:10026000331F089500951095209530950F5F1F4F0F
:100270002F4F3F4F0895019110810EC001911191B0
:10028000219130810BC00191108117FF05C03FEF14
:100290002FEF04C0008111272227332737FF03C027
:1002A000E1DF8DE28D93CF93DF93CF92DF92EF92D8
:1002B000AA24BB24CC24DD24EE2440E2CAE0DD27BE
:1002C00055E093E38881890F87FD9F7083FD907FC0
:1002D000891B89935A95A9F7C0DFAA1CBB1CCC1CAB
:1002E000DD1CEE1C4A9551F7E894EFE0FF27829160
:1002F0000ED0EB30E0F71EF068948A2D0CD08827E2
:100300008D93EF90DF90CF90DF91CF910895982F4C
:10031000829501D0892F8F70805D26F0803309F49B
:10032000089568948D930895F999FECFE1BDF2BDCB
:100330003196089591E001C092E0F6DFF89A80B519
:100340008D939A95D1F708954D6F6A206164726517
:04035000733A2000DC
:00000001FF
