:100000000C942A001895000018950000189500001F
:10001000189500001895000018950000189500002C
:10002000189500001895000018950000189500001C
:10003000189500001895000018950000189500000C
:1000400018950000189500001895000018950000FC
:10005000189500008FE58DBFC8E3E0E24E2E88E0E2
:100060008EBFD8E0F8E05F2EA89584B7082E877F72
:1000700084BF88E1992781BD91BDEEEFF7E0A0E64E
:10008000B0E088278D933197E9F781E089B980E066
:1000900080BD88E18AB966245F9908D0209161000B
:1000A0003091600023131FD00C944C003CB13D30C4
:1000B00019F430936200089520916000C3E6D0E007
:1000C000C20F20E0D21F38832091600023952F714A
:1000D00020936000309161002313089533953F71A0
:1000E0003093610008955D9B089530916200332341
:1000F00000905F0001FC0895C3E6D0E0C20F20E04D
:10010000D21F28812CB93091610033953F71309313
:100110006100209160002313089520E02093620085
:1001200008953197F1F70895689462F80895E89476
:0401300062F80895D4
:00000001FF
