:100000000C943E001895000018950000189500000B
:10001000189500001895000018950000189500002C
:10002000189500001895000018950000189500001C
:10003000189500001895000018950000189500000C
:1000400018950000189500001895000018950000FC
:100050000C94660018950000189500001895000093
:1000600018950000189500001895000018950000DC
:100070000C946E00189500000C947F008FEF8DBFDC
:10008000C8EDE0EC4E2E80E18EBFD0E1F0E15F2EB6
:10009000A89584B7082E877F84BF88E1992780932D
:1000A000600090936000EEEFFFE0A0E0B1E08827F1
:1000B0008D933197E9F7662400E80093610000E032
:1000C000009361001ED078940C9464002F932FB796
:1000D0002F930FD02F912FBF2F9118952F932FB7BC
:1000E0002F932091CE002093C6002F912FBF2F91E8
:1000F00018952091C6005D9A2093CE0008955D98D2
:10010000189500E00093C5000093CD0007E0009330
:10011000C40007E00093CC0008E10093C100009305
:10012000C90006E00093C2000093CA005D98559A8A
:100130007091C10070687093C1007091C9007068BF
:100140007093C9007091C90070647093C9000895DC
:100150003197F1F70895689462F80895E89462F889
:02016000089500
:00000001FF
